:020000040000FA
:0400000080313C28E7
:100008007E1480310B1F09280A283A282100111E66
:100018000E280F281B282000111E132814281B281F
:10002800240051088A0050080A0080313A2821002B
:10003800911E1F2820282C282000911E24282528BE
:100048002C2824004F088A004E080A0080313A28DC
:100058002100121D302831283A282000121D352889
:1000680036283A288131CE2180313A287E1009007D
:1000780080313E282000ED01EE01EF012100CF0183
:10008800B0308400013085003B30FE000030FF00B6
:100098009631AF268031203084000230850045300B
:1000A800FE000030FF009631AF268031A03084007A
:1000B800023085004030FE000030FF009631AF2648
:1000C800803120308400033085004030FE0000304D
:1000D800FF009631AF2680317E1020009631EC2E3D
:1000E80020005203031D79287A28922850081F39C6
:1000F800003A031D8028812892282300BF17033067
:1001080020005106031D89288A2890280130DE0026
:100118005E082300DE0092282300DE01200052083A
:10012800031D97289828CD2950081F39023A031D26
:100138009E289F28CD2954080F39003A0319A5286D
:10014800A628CD2954080F39DE0003305E020318B3
:10015800AE28AF28CD29203023006206031DB5281C
:10016800B628CD29BF172000D41BBB28BC28D2280D
:1001780054080F3909073A3E860002308700403F8D
:10018800E300413FE40054080F39C23E86000130C5
:1001980087000108DE005E08E200E72854080F39EE
:1001A8000907B73E860001308700403FE300413F22
:1001B800E40054080F39C53E860001308700010865
:1001C800DE005E08E2006218EA28EB28F628FB3019
:1001D800DE00FF30DF0063085E05E30064085F05AA
:1001E800E400FC2804306304E30000306404E40005
:1001F800D41BFF2800290C2954080F3909073A3E57
:100208008600023087006308C03F6408C13F172991
:1002180054080F390907B73E860001308700630884
:10022800C03F6408C13F03305106031D1C291D2926
:1002380043296308860064088700811F242925292B
:100248003829D41B28292929312954080F39C23EB5
:100258008600013087008114382954080F39C53EBB
:1002680086000130870081146308860064088700CF
:10027800011563088600640887008117CD290430BA
:100288006306E30000306406E4006308860064083F
:100298008700811F502951296E297F30DE006308AD
:1002A8008600640887005E08810563088600640884
:1002B800870001170530D8000030D9006408DB003A
:1002C8006308DA000230DC000030DD0088317A2073
:1002D8008031732963088600640887000117043099
:1002E80020006306E30000306406E400E2187D297C
:1002F8007E2986296308860064088700811F85296E
:100308008629B129D41B89298A29922954080F39A9
:10031800C23E8600013087008110992954080F39A0
:10032800C53E86000130870081103B30DE0063083F
:100338008600640887005E0881050530D800003013
:10034800D9006408DB006308DA000230DC00003002
:10035800DD0088317A208031B9293B30DE0063081E
:100368008600640887005E088105200054080F395C
:10037800983EDE00DF010E30DF3D5E08E0005F08DA
:10038800E100FE30DE0060088600610887005E0834
:100398008105080023006203031DD329D429E2291B
:1003A8003D008E1AD829D929E22990011214121673
:1003B80002302000EA006A082300E2003D00101D18
:1003C800E629E729F429121DEA29EB29F429FB304B
:1003D8002000EA006A083D0090058731DC2781315A
:1003E8003D008E1CF829F929FC2920001211F32A56
:1003F800101CFF29002A152A121C032A042A152A70
:100408008631082681312100121504302000EA00C7
:100418006A082300E200FE302000EA006A083D0076
:100428009005101E182A192A202A121E1C2A1D2A75
:10043800202A97316D2781313D00101F242A252A53
:10044800522A121F282A292A392A73302000D80054
:100458000030D9000030DA000030DB000130DC0069
:100468000030DD0088317A208131BF302000EA0079
:100478006A083D00900588310120813123005A081F
:100488000319472A482A4A2A0130DA025A08031D62
:100498004E2A4F2A522A8C31E92481313D00901E80
:1004A800562A572A5E2A921E5A2A5B2A5E2A9731B2
:1004B800D32781313D00901C622A632A792A921C35
:1004C800662A672A792AFF302000D8007F30D900B1
:1004D8000030DA000030DB000130DC000030DD00E5
:1004E80088317A2081313D00930104302300620273
:1004F80003187F2A802A832A20001211F32A3D003C
:10050800921D872A882AF12A2000EC013D00901DBF
:100518008E2A8F2AF12A0F082000EA006A08210093
:10052800CF004F0C2000EA00EA0C6A0C0F39EB00F0
:100538006B082300DC00F7302000EA006A083D0061
:10054800900521004F19A92AAA2ABC2A23005C0871
:10055800C23E860001308700010801392000EA0008
:100568000130EA0601086A06FE396A068100CD2ACA
:1005780023005C08C53E8600013087000108013968
:100588002000EA000130EA0601086A06FE396A0618
:10059800810023005C08031DD22AD32AD72A8A3176
:1005A8007E228131E62A72302000D8000030D9003E
:1005B800CF30DA000030DB000030DC00DD008831AD
:1005C8007A20813101302000EA006A08EC07043003
:1005D8006C02031CF02AF12A8A2A20001211080052
:1005E800210012112300480849040319FC2AFD2A96
:1005F800082B4808860049088700811F042B052B13
:10060800082B21001215DD2B03306606031D0D2B68
:100618000E2B0F2BE6016608031D132B142B172B2B
:1006280021001215DD2B02306606031D1C2B1D2B25
:10063800382B2100C001C00A0030C1000030C200C0
:10064800C30102308731512782312100410823003C
:10065800C900210040082300C80003302100CB0056
:100668004B082300E600DB2B6603031D3C2B3D2BC8
:10067800DB2B41306502031C422B432B492B4030B6
:100688002100CB004B08CD004E2B65082100CB0084
:100698004B08CD004D08230065022100CB004B0814
:1006A8002300E50020302400D3008030D200210050
:1006B8004D08CB004B08CC0023006408031D652BB4
:1006C800662BA62B832B2400540886005508870028
:1006D80001082100CB002400520886005308870037
:1006E80021004B08810001302400D2070030D33D9F
:1006F8000130D4070030D53D01302100CC02210063
:100708004C08031D882B892B672BAC2B240054081D
:1007180086005508870001082100CB0024005208F4
:1007280086005308870021004B088100013024000F
:10073800D2070030D33D0130D4070030D53D013019
:100748002100CC0221004C08031DAB2BAC2B8A2BBB
:1007580023006508031DB12BB22BC42B40302100A8
:100768004D06031DB82BB92BBF2B0230CB004B080D
:100778002300E600C42B0330CB004B082300E6001F
:100788002100C001C00A8030C1002030C2004D08DD
:10079800CB004B08C300023087315127823121003A
:1007A80041082300C900210040082300C800210097
:1007B800121508007108FD007008FC007408750423
:1007C800031DE72BE82BE92BA72C7C0886007D0866
:1007D80087007208810074087C07F60075087D3D63
:1007E800F7007608FF3EF800FF30773DF9007808FB
:1007F800860079088700720881000030750203308E
:10080800031974020318092C0A2C0B2CA72C7C083A
:10081800013EF60000307D3DF70076088600770837
:100828008700720881007C08023EF60000307D3D9A
:10083800F700760886007708870072088100740838
:100848007C07F60075087D3DF7007608FE3EF80047
:10085800FF30773DF900780886007908870072082C
:10086800810074087C07F60075087D3DF70076085E
:10087800FD3EF800FF30773DF900780886007908DA
:10088800870072088100003075020730031974026E
:1008980003184F2C502C512CA72C7C08033EF60033
:1008A80000307D3DF70076088600770887007208DB
:1008B800810074087C07F60075087D3DF70076080E
:1008C800FC3EF800FF30773DF9007808860079088B
:1008D800870072088100003075020930031974021C
:1008E8000318772C782C792CA72C7C09F6007D0925
:1008F800F700F60A0319F70A03307605FA00003004
:100908007705FB007A08FC077B08FD3D7A08F402AE
:100918007B08F53BFC30F405FF30F505A12C7C087D
:1009280086007D088700720881000130F4020030DB
:10093800F53B0130FC070030FD3D74087504031DCC
:10094800A62CA72C932C0800210012113D0093011E
:10095800900198010E302100C2009930C100C301F6
:10096800410886004208870081010130C107003034
:10097800C23D0130C0004008C30702304302031CD7
:10098800C62CC72CB42C16303D0091009F30970020
:100998007B3092002100C4014408C0000130C035FA
:1009A800FF3E031DD32C4035203E860087010030D2
:1009B800C03F0030C13FC23FC33F0130C0004008C4
:1009C800C4070C304402031CEA2CEB2CD02C3D004D
:1009D8000E1796010E120E13F7302100C0004008C2
:1009E8003D0090052300BF01B201B301B4013D00F1
:1009F8009019FF2C002DF02C01302100C000400878
:100A08002300D80001302100C00040082300D7008F
:100A1800D601D501DD012100C4014435B73E860069
:100A2800013087000030C03FC13F44353A3E860060
:100A3800023087000030C03FC13F4408C53E8600F1
:100A48000130870081014408C23E860001308700DA
:100A580081010130C0004008C40703304402031C70
:100A6800362D372D112D28302300B7000030B8005F
:100A780016303D00980000302000A3005030A2003E
:100A88002030A10004302100C00040082000A00050
:100A9800A0172300EA0100302400C3000030C20080
:100AA8000030C1000030C0002300D401E20108007A
:100AB80020006F0886008701413FF5007508F200A5
:100AC800F301730823003402031D6C2D72083302EE
:100AD80003186F2D702D742D3308F2007208F5007D
:100AE8007508F200F3017208B3027308B43BF4010D
:100AF800912D7408A03E860087010108F200300895
:100B0800860002308700720881000130F200720806
:100B1800B0070130F2007208F40775087402031C6C
:100B2800962D972D7D2D3308340403199C2D9D2D6A
:100B3800D62D20006D08013EF20000306E3DF30016
:100B4800720886007308870020308100A030F20008
:100B58000030F3006D0886006E0887004231720885
:100B6800C03F7308C13F6F0886008701011BBD2D78
:100B7800BE2DCA2D6D0886006E088700483081009A
:100B88006D0886006E0887008117072E6D0886009D
:100B98006E088700083081006D0886006E0887009F
:100BA8008117072E20006D08013EF20000306E3DCF
:100BB800F3007208860073088700203081005030E7
:100BC800F2000030F3006D0886006E08870042319D
:100BD8007208C03F7308C13F6D0886006E08870021
:100BE800043081006D0886006E0887008117230095
:100BF80035083608B2135908031D032E042E072E94
:100C08008C31E92485310800210012113D0093013F
:100C1800900198010E30F2009930F100F30171084B
:100C280086007208870081010130F1070030F23D2B
:100C38000130F0007008F30702307302031C252E00
:100C4800262E132E16303D0091009F3097007B30E2
:100C58009200F4017408F0000130F035FF3E031DE6
:100C6800312E7035203E860087010030C03F0030AD
:100C7800C13FC23FC33F0130F0007008F4070C3099
:100C88007402031C482E492E2E2E3D000E17960185
:100C98000E120E13F730F000700890052300BF0104
:100CA800B201B301B4013D0090195B2E5C2E4E2EAB
:100CB8000130F00070082300D8000130F0007008FF
:100CC800D700D601D501DD01F4017435B73E8600A1
:100CD800013087000030C03FC13F74353A3E86007E
:100CE800023087000030C03FC13F7408C53E86000F
:100CF8000130870081017408C23E860001308700F8
:100D080081010130F0007008F40703307402031CFD
:100D18008E2E8F2E692E28302300B7000030B800A1
:100D280016303D00980000302000A3005030A2008B
:100D38002030A1000430F0007008A000A0172300A4
:100D4800EA0100302400C3000030C2000030C100B6
:100D58000030C0002300D401E20108003D000E125B
:100D68002300BF1BB82EB92EFF2EB21FBC2EBD2EDE
:100D7800CD2E0230F5007508E0005508031DC52E7C
:100D8800C62EC92E8A31D62286312300D701D80132
:100D9800502F20006D08013EF50000306E3DF60032
:100DA8007508860076088700203081005030F500ED
:100DB8000030F6006D0886006E088700423175081D
:100DC800C03F7608C13F6D0886006E0887000C306A
:100DD80081006D0886006E08870081172300370898
:100DE80086003808870004308100370886003808F4
:100DF80087008117502F2000D01F032F042F1D2F8D
:100E08000130F50075082300E0005608031D0D2F7A
:100E18000E2F112F8A31D62286312300D701D8010F
:100E28005908031D182F192F502F8C31E9248631AA
:100E3800502F0230F50075082300E00020006D08EF
:100E4800013EF50000306E3DF60075088600760814
:100E58008700203081005030F5000030F6006D0822
:100E680086006E08870042317508C03F7608C13F8A
:100E78006D0886006E088700043081006D088600C2
:100E88006E08870081172300D701D8015908031D70
:100E98004E2F4F2F502F192F08002100C80040084F
:100EA8000319572F582F622F4835B73E8600013057
:100EB8008700403FC900413FCA006B2F48353A3E82
:100EC800860002308700403FC900413FCA004908F8
:100ED8004A04031D702F712F742FC001C101DB2F2D
:100EE800FF304105C4007F304205C500490886002F
:100EF8004A08870042314408C03F4508C13F4908B5
:100F0800013EC40000304A3DC5004408860045083B
:100F18008700430881004030C400490886004A0819
:100F2800870044088105490886004A08870081151A
:100F3800490886004A088700811740080319A52F29
:100F4800A62FBF2F4835B73E860001308700403FA7
:100F5800C400413FC50004304406C60000304506C1
:100F6800C7004835B73E8600013087004608C03FB5
:100F78004708C13FD72F48353A3E860002308700E0
:100F8800403FC400413FC50004304406C60000305D
:100F98004506C70048353A3E8600023087004608B5
:100FA800C03F4708C13F4A08C1004908C0000800BF
:100FB8002300DD0174302000D8000030D900003053
:100FC800DA000030DB000030DC00DD0088317A20F8
:100FD80087313D008E101211F72FFB302000DE0004
:100FE8005E083D0090051019FA2FFB2FF12F230002
:060FF800D401080008000E
:1010020001302400C0070030C13D0030C23D003035
:10101200C33D23005D08031D0F2810281D28013041
:10102200F0007008D4075408031D182819281D2839
:10103200FF30F0007008D4000800F8007108F600D4
:101042007008F5007808F4007408F9003F28750864
:101052008600760887000108F4007408F700013062
:10106200F5070030F63D7708F4007908860087011D
:10107200740881000130F4007408F9070130F202AB
:101082000030F33B720A031D4A28730A031D4A28E3
:101092004B28282808002100C10023005108031909
:1010A200532854284E282100111A582859285D28FF
:1010B200410823009A00772811124108C00023003A
:1010C2005308203E8600033087002100400881003B
:1010D2000130C00040082300D30740305302031CF4
:1010E200732874287528D3010130D102210011160A
:1010F200080083288831AC208831AB288C31042445
:101102008831AB2820005908003A03198C287F3A0D
:101112000319A628AB285808013A03197B28033A79
:101122000319AB28013A03197F28063A0319AB28A1
:10113200773A0319AB28013A0319AB28073A031986
:10114200AB28013A0319AB28AB285808FF3A031918
:10115200AB28AB28080000302400E1000030E0009A
:101162004B30DF000030DE00E201E3010830FD0019
:101172007D08E4002300E7011A30FD007D08F70036
:1011820001309731AE2788311E30FD007D08F7000F
:1011920002309731AE278831F001C030F1002030A3
:1011A200F2004030FD007D08F30002308E316026EF
:1011B200883171082300CB007008CA00C801C90138
:1011C200E6010800023023006006031DE928EA2830
:1011D200EE2885315C2588311B29E0015B08031D5F
:1011E200F328F4281A2920006D08013EF600003089
:1011F2006E3DF70076088600770887002030810070
:101202005030F6000030F7006D0886006E08870047
:1012120042317608C03F7708C13F6D0886006E08EC
:1012220087000C3081006D0886006E0887008117E8
:101232001B29DB010800230050082A3E86000230E9
:10124200870081011D1D26292729332950082A3E9E
:10125200860002308700811424004D088A004C0861
:101262000A00893123009D1C372938294429500856
:101272002A3E860002308700011524004B088A00AE
:101282004A080A008931230050082A3E86000230AB
:101292008700010803194E294F29562924004908BD
:1012A2008A0048080A00893159299731182789315B
:1012B2000800F5002030F1007108F6007008F10016
:1012C2000130F135890B62297508F2000130F235DF
:1012D200FF3E031D682972357107F3000130F335B3
:1012E200FF3E031D70297335F4007408F607760873
:1012F2008600870181137008031D802981298B29AB
:1013020075353A3E8600023087007608C03F0030CD
:10131200C13F94297535B73E8600013087007608B3
:10132200C03F0030C13F760886008701011376086E
:10133200043E8600870101170800210091121C302B
:10134200C0000930C10096319D2689312100111259
:101352008D30C0001730C1009631A6268931083081
:1013620023009F0090309D0024309E0067309B0038
:101372009C01FE302100C0000730C10096318B264F
:1013820089317A302100C0001630C100963194268E
:10139200893176302100C0001630C1009631822694
:1013A20089312300CD01D301D20140302100C20096
:1013B20042082300D100D001CF01CE0121009116B5
:1013C20008002030230062020318E829E929EA29EB
:1013D2002C2A3D008E1CEE29EF29F0292C2A23000D
:1013E2006608031DF529F629292A2030EB006B082F
:1013F2002100CB00C0308B31362389312300EC0031
:101402006C08ED00EE01132A6E08C03E8600023021
:101412008700010888314C20893101302300EB001C
:101422006B08EE076D086E02031C182A192A052A9A
:101432004C0803191D2A1E2A292A4C08EB006B08A6
:101442002100C000A0309731322789312300CC011E
:101452008231F422893108002300E101D901D60149
:10146200D501DB01E0017F302000E70023003708CF
:1014720086003808870020006708810504302300B1
:101482003706B70000303806B8007F302000E7008A
:101492002300370886003808870020006708810586
:1014A200043023003706B70000303806B8007F301A
:1014B2002000E7006D0886006E0887006708810536
:1014C2002300BF01C001C101B201B301B4018D31DA
:1014D200D8258A3103302000D8000030D9000030EE
:1014E200DA000030DB000030DC00DD0088317A20D9
:1014F2008A318631B2268A3108002D302000E80078
:1015020068082300DA0021004F08FD39031D8A2AEA
:101512008B2AC82A4F363F392000E8000130E835CF
:10152200FF3E031D902A6835203EE9006908EF005E
:101532006F08ED00FF39031D0030EE0004306D0628
:10154200ED0000306E06EE006F0886008701010C88
:10155200890C0F390D3A031DAF2AB02AC42A6F082D
:10156200023E86008701403FF000413FF100083013
:10157200F2000030F300503088311E208A318A3167
:101582002D228A31D52A8831E3208A31D52AFD30AD
:101592004F052000E80004306806031DD12AD22A34
:1015A200D52A8D3160258A3108002300D601D50164
:1015B20002306006031DDE2ADF2A052B20006D089B
:1015C200013EF30000306E3DF4007308860074089B
:1015D200870020308100A030F3000030F4006D0855
:1015E20086006E08870042317308C03F7408C13F0D
:1015F2006D0886006E088700483081006D088600FD
:101602006E0887008117352B410820005702031D01
:101612000E2B23004008200056020318112B122B18
:10162200192B57082300C100200056082300C000D0
:101632008C3172248A31A030F3000030F400230090
:10164200370886003808870042317308C03F7408A3
:10165200C13F3708860038088700483081003708C4
:10166200860038088700811708002100CE00230079
:10167200E7014A084B0403193F2B402B482B4A0829
:1016820086004B088700811B472B482B992B4A0861
:1016920086004B088700413121004B0801020318E4
:1016A200532B542B5F2B23004A0886004B088700DC
:1016B200413101082100CC004C08CB002300E70196
:1016C2007B2B6708C03E860087012030873D0108DA
:1016D2002100CC002300670821004E07CD004D08F1
:1016E2008600023087004C0881000130CC004C0893
:1016F2002300E70721004B0823006702031C822B0B
:10170200832B622B2100C001C030C1002030C200F7
:101712004030CC004C08C3000230873151278B3156
:10172200210041082300CB00210040082300CA0009
:10173200670808002100A001A101E02B2300BF17C8
:101742005E03031DA52BA62BF52B2100A014F52B60
:101752002300BF17F52B2300BF172000D41BB22B89
:10176200B32BBF2B54080F3909073A3E86000230CB
:101772008700403FF200413FF300CA2B54080F3963
:101782000907B73E860001308700403FF200413F23
:10179200F3007208860073088700811FD12BD22BB9
:1017A200F52B7208860073088700011DD92BDA2BEE
:1017B200F52B0130F00070082100A000F52B20006D
:1017C20050081F39F000F1017108003A0319EA2BA1
:1017D200F52B7008003A03199F2B013A0319A92B24
:1017E200033A0319AC2BF52B2300BF1FF92BFA2B5D
:1017F200032CA030BD000030BE003F140230F000C8
:101802007008C0000800200050081F39013A03196F
:101812000B2C0C2C0D2C712C500E890C0339013A17
:101822000319142C152C162C712C540803191A2C7C
:101832001B2C582C540303191F2C202C582C712CB0
:1018420056302300BD000230BE000030C100083017
:10185200C0003F14BF17712C56302300BD00023068
:10186200BE00BF17712C57082300B4002000560891
:101872002300B3005E30F0007008B000B501B6017D
:10188200B217712C5E302300BD000230BE00003062
:10189200C1000730C000C130F0007008BF00712CD9
:1018A2005208F00070082300E300BF17712C5108A2
:1018B200F000F1017108003A0319602C712C7008D4
:1018C200003A0319212C013A03192D2C213A03194C
:1018D200342C013A0319432C033A0319512C712C6D
:1018E20008002030F0007008F200003023004102AE
:1018F20020300319400203187F2C802C972C4008BB
:10190200F0007008F2006108031D882C892C8E2CCF
:101912000130F0007008E100972C6103031D922C46
:10192200932C972C0230F0007008E1007208F0004E
:10193200F1017008C0027108C13B3708013EF00096
:101942000030383DF1007008860071088700720887
:101952008100A030F0007008DF003F18B12CB22CDB
:10196200E32CC82C3D0884003E0885000008F000E6
:101972005F0886008701700881000130BD070030D2
:10198200BE3D0130F0007008DF070130F20272083C
:10199200031DCC2CCD2CB32CE82C3D0884003E0832
:1019A20085000008F0005F0886008701700881004A
:1019B2000130BD070030BE3D0130F0007008DF0786
:1019C2000130F2027208031DE72CE82CCE2C08002D
:1019D20023005808031DEE2CEF2C5F2D0130F00080
:1019E2007008D8005708031DF72CF82C5F2D013022
:1019F200F0007008D70002306006031D012D022D91
:101A0200142D3708860038088700413181013708D4
:101A12008600380887004830810037088600380879
:101A2200870081175F2D6003031D182D192D5F2D6F
:101A3200DB012030F00020006F0A86008701700869
:101A420081005030F0000030F1006F08023E860045
:101A520087017008C03F7108C13F0430F0006F0871
:101A620086008701700881006F0886008701811750
:101A72000130F00070082300DB0020006D08013EF9
:101A8200F00000306E3DF10070088600710887009A
:101A9200203081005030F0000030F1006D088600E7
:101AA2006E08870042317008C03F7108C13F6D085F
:101AB20086006E088700803081005F2D08002300B9
:101AC20037088600380887000030011B0130F50016
:101AD20004303706B70000303806B8000830620616
:101AE200031D742D752D8A2D200052087F393D006B
:101AF2009600160803197E2D7F2D852D1030F300D8
:101B020073082300E2008A2D0430F30073082300D7
:101B1200E2006003031D8E2D8F2DCF2DA030F30028
:101B22000030F40037088600380887004231730815
:101B3200C03F7408C13F8C3172248D3102302300C2
:101B42006106031DA52DA62DB22D37088600380883
:101B52008700043081003708860038088700811723
:101B6200D72D7508031DB62DB72DC32D3708860056
:101B72003808870048308100370886003808870017
:101B82008117D72D37088600380887000830810072
:101B920037088600380887008117D72DB21FD22D4B
:101BA200D32DD62D35083608B213E00108002000E7
:101BB200500E890C0339003A0319E02DE12D342E21
:101BC2005F2E2300BF1708302000E50065082300C0
:101BD200E2005F2E8E31EA268D315F2E8F3175271E
:101BE2008D315F2EEA302300BD000130BE003F146C
:101BF20001302000E50065082300C000BF175F2EFA
:101C02008B319B238D315F2E803174208D315F2E7D
:101C12005408E83E2300BD000130BE003F140130ED
:101C22002000E50065082300C000BF175F2E2300D7
:101C3200BF1720005208E5005408E83E8600013034
:101C42008700650881005F2E0230D8000030D9007D
:101C52000030DA000030DB000030DC00DD008831CB
:101C62007A208D315F2E5108E500E6016608003AC0
:101C720003193C2E5F2E6508003A0319012E013A22
:101C82000319052E023A0319052E063A0319E22D0D
:101C9200033A0319EB2D013A0319252E0F3A0319C2
:101CA200F32D013A0319EF2D033A0319092E013AD4
:101CB2000319182E073A03195F2E5F2E0800F80049
:101CC20070080319652E662E702E7835B73E860091
:101CD20001308700403FF900413FFA00792E783504
:101CE2003A3E860002308700403FF900413FFA0049
:101CF20079087A04031D7E2E7F2E822EF001F101D7
:101D0200E92EFF307105F4007F307205F500790885
:101D120086007A08870042317408C03F7508C13FC7
:101D22007908013EF40000307A3DF500740886001F
:101D320075088700730881004030F4007908860036
:101D42007A08870074088105790886007A08870076
:101D52008115790886007A088700811770080319AF
:101D6200B32EB42ECD2E7835B73E860001308700D3
:101D7200403FF400413FF50004307406F6000030A5
:101D82007506F7007835B73E860001308700760881
:101D9200C03F7708C13FE52E78353A3E86000230D3
:101DA2008700403FF400413FF50004307406F6001E
:101DB20000307506F70078353A3E8600023087001B
:101DC2007608C03F7708C13F7A08F1007908F00031
:101DD2000800803020005006031DF02EF12E742FD3
:101DE200C030F00070082300BF00602F00302300D5
:101DF200BD009830BE000030C1001230C000742F08
:101E02005208031D052F062F352F5208F000F1014D
:101E1200F035F10D1C30700784009830713D85005B
:101E2200003F2300BD00013FBE003E08F1003D0817
:101E3200F00002307007840071080318710A8500EF
:101E42000008F2007208C0003E08F1003D08F000F0
:101E520003307007840071080318710A85000008B6
:101E6200F2007208C100742F2300BF01742F0330E7
:101E7200520203183D2F3E2F5A2F5208F000F10153
:101E8200F035F10D1230700784009830713D8500F5
:101E9200003F2300BD00013FBE003D0884003E0814
:101EA20085000008F000F1017008C0007108C1004F
:101EB200742F2300BF01742F2300BF01742F200051
:101EC2005308F000F1017108003A0319692F5D2FE0
:101ED2007008013A0319F72E033A0319012F013A48
:101EE2000319382F5D2F08002300BF170E30200082
:101EF200E0009930DF00E1015F088600600887009A
:101F020081010130DF070030E03D0130DE005E0874
:101F1200E10702306102031C8F2F902F7D2F2030AA
:101F2200F0000030F1000030F200F3003030F40035
:101F32000030F5008331DE238F313D000E17200083
:101F4200E2016208C53E8600013087008101620815
:101F5200C23E86000130870081010130DE005E084A
:101F6200E20703306202031CB72FB82FA22FE8301A
:101F7200F0000130F1000030F200F3000230F40012
:101F82000030F5008331DE238F313D000E132830FF
:101F92002300B7000030B80020302000DE005E08C9
:101FA200EF006F08ED00FF39031D0030EE0052080C
:101FB200DE005E082300EA006A08031DE12FE22F1B
:101FC200E92F10302000DE005E082300E200FF2F20
:101FD20001302000D8000030D900EA30DA000130A8
:101FE200DB000130DC000030DD0088317A208F31E7
:101FF20020302000DE005E082300E20008000934E1
:10200200023443340034023401340034C0343234F4
:10201200093404340034003401340234023401340B
:1020220000340534243400341034013404342434AC
:1020320002340234053424340634003401340534C5
:102042002434013400340134073405348134033438
:102052000A340034023409340434013400340234C2
:102062000A340034003400340734053402340234B4
:1020720040340034003407340534823402344034AE
:1020820000340034343403344D34003469340034C1
:1020920063340034723400346F34003463340034F7
:1020A200683400346934003470340034203400342D
:1020B20054340034653400346334003468340034FA
:1020C2006E3400346F3400346C3400346F340034B6
:1020D2006734003479340034203400344934003415
:1020E2006E340034633400342E3400342E3403341E
:1020F20053340034743400346534003466340034AC
:10210200613400346E340034203400344E340034F0
:10211200693400346B3400346F3400346C3400346E
:10212200613400346A3400342034003455340034CD
:1021320053340034423400345534003441340034D2
:0821420052340034543400341F
:102CEC00973118279631080023001D121D16080075
:102CFC001630210097000800210041082400C9006B
:102D0C00210040082400C8000800210041082400CC
:102D1C00CD00210040082400CC000800210041080F
:102D2C002400CB00210040082400CA000800210028
:102D3C0041082400CF00210040082400CE000800E8
:102D4C00210041082400D100210040082400D000BB
:102D5C0008006400800101310130FE020030FF3BAD
:102D6C007F087E04031DB02E003423001908F000E8
:102D7C004C08A03E860002308700700881000130AC
:102D8C00F0007008CC0708007C30210099009801F5
:102D9C00903027009B002200960121001A1FD72E8D
:102DAC00D82ED32E08009631FF2696319631CA269E
:102DBC00963196317E2696318431A82496319731FE
:102DCC004E27963189319E21963108009631D926AD
:102DDC0096318B170B17BB302100C0001630C10089
:102DEC0096319D2696318931E2219631F92E80312A
:102DFC003C2822008C018D018E01303021008C008A
:102E0C0070308D00FF308E00CF3023008E008D018E
:102E1C0010308C0024008D018C01210095172200AC
:102E2C009D01080023001908F0005008323E86006E
:102E3C0002308700700881000130F0007008D00764
:102E4C0008305002031C2B2F2C2F2D2FD0010130BA
:102E5C00F0007008CE0708002100C20012112300F8
:102E6C006608031D3A2F3B2F4B2F210042082400EC
:102E7C00D4000230D50021004008C10041082300D5
:102E8C00E500E401E40AE601E60A21001215080057
:102E9C0023006208031D532F542F6C2F3D008E010D
:102EAC009201163091009F3097007B3092002100E8
:102EBC001215612F8E153D008E1D652F662F602F0C
:102ECC0001302100C00040082300E20008003D0052
:102EDC001215EF302000DE005E083D0090058E14C8
:102EEC0001302000DE005E082300DD00D4017530C7
:102EFC002000D8000030D9000030DA000030DB00B0
:102F0C000030DC00DD0088317A2097310800403039
:102F1C00230051020318932F942FAB2F5208203EFD
:102F2C0086000330870001089A000130F000700819
:102F3C00D20740305202031CA42FA52FA62FD2017A
:102F4C000130F0007008D107AD2F210011120800DC
:102F5C00FC00771DB22FB32FB82FF0017C088931FC
:102F6C005A219731F71CBB2FBC2FC22FF001F00A4E
:102F7C007C0889315A2197317C08983EF800F90178
:102F8C000E30F93D7808FA007908FB007A088600C3
:102F9C007B0887007708810008003D00181CD72F9C
:102FAC00D82FFB2F20006F08860087018030010688
:102FBC00031DE12FE22FF92F230037088600380874
:102FCC00870084300106031DEC2FED2FF92F0C30F8
:102FDC00F00020006F0886008701700881006F08E0
:102FEC008600870181173D001810DF30F000700853
:102FFC0090050800123401340034023402340034D9
:10300C0000342034D83404340A340034003401340D
:10301C00013402340034013418349834433490347D
:10302C007734903404340334093404340034903449
:020000040001F9
:04000E00E43FCF3FBD
:00000001FF
